:020000040800F2
:100000000050002009110008E5100008E710000862
:10001000E9100008EB100008ED10000800000000D7
:10002000000000000000000000000000EF100008C9
:10003000F110000800000000F3100008F51000089F
:100040005111000851110008511100085111000808
:1000500051110008511100085111000851110008F8
:1000600051110008511100085111000851110008E8
:1000700051110008511100085111000851110008D8
:1000800051110008511100085111000851110008C8
:10009000F910000851110008511100085111000811
:1000A00051110008511100085111000851110008A8
:1000B0005111000851110008511100085111000898
:1000C0005111000851110008511100085111000888
:1000D00051110008410E0008710E0008A10E000821
:1000E00051110008511100085111000800000000D2
:1000F0000000000000000000000000000000000000
:0C01000000000000000000005FF808F1A3
:10010C0010B5054C237833B9044B13B10448AFF345
:10011C0000800123237010BD7C0100200000000032
:10012C000444000808B5034B1BB103490348AFF363
:10013C00008008BD0000000080010020044400087D
:10014C0081F0004102E000BF83F0004330B54FEA7C
:10015C0041044FEA430594EA050F08BF90EA020FE9
:10016C001FBF54EA000C55EA020C7FEA645C7FEA7C
:10017C00655C00F0E2804FEA5454D4EB5555B8BF9F
:10018C006D420CDD2C4480EA020281EA030382EA10
:10019C00000083EA010180EA020281EA0303362DA2
:1001AC0088BF30BD11F0004F4FEA01314FF4801C75
:1001BC004CEA113102D0404261EB410113F0004F87
:1001CC004FEA03334CEA133302D0524263EB43033E
:1001DC0094EA050F00F0A780A4F10104D5F1200EDC
:1001EC000DDB02FA0EFC22FA05F2801841F1000137
:1001FC0003FA0EF2801843FA05F359410EE0A5F10B
:10020C0020050EF1200E012A03FA0EFC28BF4CF03B
:10021C00020C43FA05F3C01851EBE37101F00045F1
:10022C0007D54FF0000EDCF1000C7EEB00006EEBFE
:10023C000101B1F5801F1BD3B1F5001F0CD3490888
:10024C005FEA30004FEA3C0C04F101044FEA4452DF
:10025C0012F5800F80F09A80BCF1004F08BF5FEA66
:10026C00500C50F1000041EB045141EA050130BD46
:10027C005FEA4C0C404141EB0101013C28BFB1F558
:10028C00801FE9D291F0000F04BF01460020B1FAA3
:10029C0081F308BF2033A3F10B03B3F120020CDA76
:1002AC000C3208DD02F1140CC2F10C0201FA0CF054
:1002BC0021FA02F10CE002F11402D8BFC2F1200CB9
:1002CC0001FA02F120FA0CFCDCBF41EA0C0190406F
:1002DC00E41AA2BF01EB0451294330BD6FEA0404B8
:1002EC001F3C1CDA0C340EDC04F11404C4F12002A3
:1002FC0020FA04F001FA02F340EA030021FA04F3B5
:10030C0045EA030130BDC4F10C04C4F1200220FA0B
:10031C0002F001FA04F340EA0300294630BD21FA49
:10032C0004F0294630BD94F0000F83F4801306BF0F
:10033C0081F480110134013D4EE77FEA645C18BF03
:10034C007FEA655C29D094EA050F08BF90EA020F9A
:10035C0005D054EA000C04BF1946104630BD91EA92
:10036C00030F1EBF0021002030BD5FEA545C05D195
:10037C004000494128BF41F0004130BD14F58004D4
:10038C003CBF01F5801130BD01F0004545F0FE4148
:10039C0041F470014FF0000030BD7FEA645C1ABF7D
:1003AC00194610467FEA655C1CBF0B46024650EAB4
:1003BC00013406BF52EA033591EA030F41F40021E0
:1003CC0030BD00BF90F0000F04BF0021704730B566
:1003DC004FF4806404F132044FF000054FF000013B
:1003EC0050E700BF90F0000F04BF0021704730B5FC
:1003FC004FF4806404F1320410F0004548BF4042D1
:10040C004FF000013EE700BF42004FEAE2014FEA25
:10041C0031014FEA02701FBF12F07F4393F07F4F00
:10042C0081F06051704732F07F4208BF704793F003
:10043C007F4F04BF41F40021704730B54FF4607416
:10044C0001F0004521F000411CE700BF50EA010219
:10045C0008BF704730B54FF000050AE050EA0102C2
:10046C0008BF704730B511F0004502D5404261EB32
:10047C0041014FF4806404F132045FEA915C3FF473
:10048C00D8AE4FF003025FEADC0C18BF03325FEA10
:10049C00DC0C18BF033202EBDC02C2F1200300FAC1
:1004AC0003FC20FA02F001FA03FE40EA0E0021FAE6
:1004BC0002F11444BDE600BF70B54FF0FF0C4CF4D4
:1004CC00E06C1CEA11541DBF1CEA135594EA0C0F86
:1004DC0095EA0C0F00F0DEF82C4481EA030621EAC1
:1004EC004C5123EA4C5350EA013518BF52EA0335FC
:1004FC0041F4801143F4801338D0A0FB02CE4FF0AE
:10050C000005E1FB02E506F00042E0FB03E54FF0DD
:10051C000006E1FB03569CF0000F18BF4EF0010ED5
:10052C00A4F1FF04B6F5007F64F5407404D25FEAD1
:10053C004E0E6D4146EB060642EAC62141EA555184
:10054C004FEAC52040EA5E504FEACE2EB4F1FD0CC6
:10055C0088BFBCF5E06F1ED8BEF1004F08BF5FEA44
:10056C00500E50F1000041EB045170BD06F00046F6
:10057C0046EA010140EA020081EA0301B4EB5C04A3
:10058C00C2BFD4EB0C0541EA045170BD41F480119B
:10059C004FF0000E013C00F3AB8014F1360FDEBFC0
:1005AC00002001F0004170BDC4F10004203C35DA9C
:1005BC000C341BDC04F11404C4F1200500FA05F31F
:1005CC0020FA04F001FA05F240EA020001F00042C0
:1005DC0021F0004110EBD37021FA04F642EB060136
:1005EC005EEA430E08BF20EAD37070BDC4F10C0460
:1005FC00C4F1200500FA04F320FA05F001FA04F224
:10060C0040EA020001F0004110EBD37041F100010F
:10061C005EEA430E08BF20EAD37070BDC4F120051A
:10062C0000FA05F24EEA020E20FA04F301FA05F282
:10063C0043EA020321FA04F001F0004121FA04F22A
:10064C0020EA020000EBD3705EEA430E08BF20EAFA
:10065C00D37070BD94F0000F0FD101F00046400034
:10066C0041EB010111F4801F08BF013CF7D041EAB6
:10067C00060195F0000F18BF704703F000465200BA
:10068C0043EB030313F4801F08BF013DF7D043EA8B
:10069C000603704794EA0C0F0CEA135518BF95EA41
:1006AC000C0F0CD050EA410618BF52EA4306D1D1C8
:1006BC0081EA030101F000414FF0000070BD50EAE7
:1006CC00410606BF1046194652EA430619D094EA71
:1006DC000C0F02D150EA013613D195EA0C0F05D15B
:1006EC0052EA03361CBF104619460AD181EA0301AF
:1006FC0001F0004141F0FE4141F470014FF0000067
:10070C0070BD41F0FE4141F4780170BD70B54FF001
:10071C00FF0C4CF4E06C1CEA11541DBF1CEA135581
:10072C0094EA0C0F95EA0C0F00F0A7F8A4EB050463
:10073C0081EA030E52EA03354FEA013100F088805A
:10074C004FEA03334FF0805545EA131343EA126323
:10075C004FEA022245EA111545EA10654FEA0026D8
:10076C000EF000419D4208BF964244F1FD0404F591
:10077C00407402D25B084FEA3202B61A65EB0305ED
:10078C005B084FEA32024FF480104FF4002CB6EBAA
:10079C00020E75EB030E22BFB61A754640EA0C002A
:1007AC005B084FEA3202B6EB020E75EB030E22BF6A
:1007BC00B61A754640EA5C005B084FEA3202B6EBAB
:1007CC00020E75EB030E22BFB61A754640EA9C006A
:1007DC005B084FEA3202B6EB020E75EB030E22BF3A
:1007EC00B61A754640EADC0055EA060E18D04FEAF8
:1007FC00051545EA16754FEA06164FEAC30343EA98
:10080C0052734FEAC2025FEA1C1CC0D111F4801F64
:10081C000BD141EA00014FF000004FF0004CB6E75D
:10082C0011F4801F04BF01430020B4F1FD0C88BFFC
:10083C00BCF5E06F3FF6AFAEB5EB030C04BFB6EB07
:10084C00020C5FEA500C50F1000041EB045170BDFA
:10085C000EF0004E4EEA113114EB5C04C2BFD4EB27
:10086C000C0541EA045170BD41F480114FF0000EAB
:10087C00013C90E645EA060E8DE60CEA135594EA27
:10088C000C0F08BF95EA0C0F3FF43BAF94EA0C0F2A
:10089C000AD150EA01347FF434AF95EA0C0F7FF49F
:1008AC0025AF104619462CE795EA0C0F06D152EAF3
:1008BC0003353FF4FDAE1046194622E750EA4106D7
:1008CC0018BF52EA43067FF4C5AE50EA41047FF4E8
:1008DC000DAF52EA43057FF4EBAE12E74FEA41024B
:1008EC0012F5001215D211D56FF47873B3EB625276
:1008FC0012D94FEAC12343F0004343EA505311F09D
:10090C00004F23FA02F018BF404270474FF000002E
:10091C00704750EA013005D111F0004008BF6FF06C
:10092C00004070474FF00000704700BF034600685E
:10093C0010B570B15A6801329042D8BF0022986845
:10094C0090421BBF5868DC68002021541CBF01205A
:10095C005A6010BD0346006810B590B158689A688B
:10096C0090420DD09A68D868541C9C60825C0A70C6
:10097C0099681A68914201D100229A60012000E026
:10098C00002010BD2DE9F04104460D461F461646C9
:10099C0000214C22043003F027FD3A463146204614
:1009AC002B682560BDE8F04118478262009A4163CC
:1009BC0082634364704703685B68184710B404682B
:1009CC00A468A44610BC604701B1816402B1C26442
:1009DC007047036A70B504460E461546C3B92368C2
:1009EC0020469B6A98470028F9D0A26A3146954266
:1009FC00A8BF1546606B2A4603F0E8FC012323636D
:100A0C002368E56220465B6931789847284670BDBB
:100A1C00036800259B699847F8E7002337B58DF8E4
:100A2C000730436A05469BB9044654F8383B9B6B28
:100A3C00984720460DF10701FFF78CFF04462B6801
:100A4C002846DB6B98472CB19DF8070003B030BDEE
:100A5C00FB20FBE72046F9E7C26B006C101A18BFAD
:100A6C000120704713B504460DF107012830FFF73C
:100A7C0071FF0128236806D120465B699DF8071099
:100A8C00984702B010BD1B6B20469847A36C002BF7
:100A9C00F7D09847F5E7036870B50446DB699847CB
:100AAC00A36901467BB1E26962B1E269013AE26194
:100ABC005A1CA2611870E36923B9E36C03B198471F
:100ACC000023A36170BD04F13800E66B256CFFF7C1
:100ADC002DFF20B9636843F001036360F2E7AE4277
:100AEC00F0D1E36C002BEDD0BDE87040184710B589
:100AFC0084680429E06820F48060E060206920F4B8
:100B0C005050206104D005291CD06FF0020010BD9C
:100B1C00E16821F48051082AE1601FD0092A15D020
:100B2C00072AF2D1E26822F48062E26022690C2B7F
:100B3C0022F44052226119D00E2B13D0002BE4D199
:100B4C001846E4E7E16841F48051E4E7E26842F4D6
:100B5C008062E260E26822F40072E6E7E26842F446
:100B6C00C062E2E7236943F4005323610020CEE71F
:100B7C00C268090153B2002BACBF03F16043054BB3
:100B8C00C9B2ABBF03F5614302F00F0283F8001347
:100B9C009954704714ED00E0002070478368596049
:100BAC00DA6842F08002DA607047704783685868F0
:100BBC00C0B270478368D86880F08000C0F3C01062
:100BCC00704783681B6813F0C00F14BF012000200E
:100BDC00704783681868C0F3401070478268D36808
:100BEC0023F0C003D36070478268536923F040033D
:100BFC0053617047002808DB0123420900F01F00F5
:100C0C0003FA00F0014B43F82200704700E100E0CA
:100C1C002DE9F8434B1EDCB2022C63D8334D016135
:100C2C0055F8244001F12405EEB2C0E90246304EDD
:100C3C006DB246F82300E36823F40053E3602D4BB8
:100C4C0053F82130012B35D0022B43D00020170153
:100C5C00B0FBF7F6FFF7C6FB804638468946FFF730
:100C6C00B1FB02460B4640464946FFF74FFD804616
:100C7C0030468946FFF7B6FB02460B4640464946CE
:100C8C00FFF762FA00221C4BFFF716FCFFF726FE5B
:100C9C0036010E28DABF3043A060A660E368284610
:100CAC0043F4005343F02C03E360FFF7A3FF002051
:100CBC00BDE8F883114B1248596800680B0A11F40F
:100CCC00806F1FBF0F4903F0030351F82330B0FBB3
:100CDC00F3F0BCE7094B0A4859680068CB0A11F4D9
:100CEC00005FEEE76FF00100E2E700BF3C44000854
:100CFC00980100202C4400080000304000100240F5
:100D0C00000000201C44000890F90C00FFF772BF93
:100D1C002DE9F843D0E9025253B2002B04460DDB07
:100D2C00012002F01F0200FA02F25B092F48203367
:100D3C0040F82320BFF34F8FBFF36F8FEB6822690E
:100D4C0023F40053EB602A4B53F82230012B34D0A0
:100D5C00022B42D000200F01B0FBF7F6FFF742FB4D
:100D6C00804638468946FFF72DFB02460B46404627
:100D7C004946FFF7CBFC804630468946FFF732FBED
:100D8C0002460B4640464946FFF7DEF90022194B56
:100D9C00FFF792FBFFF7A2FD36010E28DABF3043B6
:100DAC00A860AE60EB6894F90C0043F40053EB6060
:100DBC00FFF720FF0020BDE8F8830F4B0F485A685F
:100DCC000068130A12F4806F1FBF0D4A03F003036F
:100DDC0052F82330B0FBF3F0BDE7074B07485A68D5
:100DEC000068D30A12F4005FEEE700BF00E100E0F8
:100DFC002C4400080000304000100240000000208D
:100E0C001C44000870470000C26853B2002B0DDB75
:100E1C00012102F01F0201FA02F25B09044920339E
:100E2C0041F82320BFF34F8FBFF36F8F704700BF84
:100E3C0000E100E0094B10B51C68630603D5084BB4
:100E4C001868FFF70FFE14F0280F05D0BDE810400E
:100E5C00034B1868FFF71FBE10BD00BF00380140E0
:100E6C0098010020094B10B51C68630603D5084B8C
:100E7C005868FFF7F7FD14F0280F05D0BDE81040B7
:100E8C00034B5868FFF707BE10BD00BF004400407D
:100E9C0098010020094B10B51C68630603D5084B5C
:100EAC009868FFF7DFFD14F0280F05D0BDE810405F
:100EBC00034B9868FFF7EFBD10BD00BF0048004022
:100ECC0098010020704700000122014B1A60704706
:100EDC00F409002030B595B0142200210CA803F0C1
:100EEC0083FA1422102500210DEB020003F07CFA8A
:100EFC002A46002101A803F077FA02244FF480332C
:100F0C000122CDE91143CDE90A234FF4E0130AA8DD
:100F1C000E92139301F07CFA08B172B6FEE70F2320
:100F2C00CDE905344FF480630790CDE908302146B4
:100F3C0005A801F02FFC08B172B6FEE7049001A8D9
:100F4C00019501F0C3FC08B172B6FEE715B030BDD7
:100F5C002DE9F04186B000F01BF9FFF7BBFF2A4BDF
:100F6C002A4D9A69DFF8A88042F020029A619A69AA
:100F7C00284F02F020020392039A9A6942F0080269
:100F8C009A619A6902F008020492049A9A6942F0F2
:100F9C0004029A619B6903F004030593059B02F01C
:100FAC0073FF1D4800F05EF84FF4E13303221B4938
:100FBC001748FFF7E7FC4FF48062194B19491448A6
:100FCC000092FFF7F2FC0C23072204211048FFF7D4
:100FDC00F5FC154A15490E48FFF7F6FC2B68002B5B
:100FEC00FCD000240B4E2C600948FFF735FD20B9CE
:100FFC003846A1B202F0CCFFF0E74046FFF70DFDFA
:10100C00013406F8010BEFE700100240F409002050
:10101C00A40100200C110020F8090020484400080D
:10102C00F4010020F4050020D50E0008D10E0008B4
:10103C0072B6FEE70A4B82B09A6942F001029A61DD
:10104C009A6902F001020092009ADA6942F0805229
:10105C00DA61DB6903F080530193019B02B07047A6
:10106C000010024030B5002487B0194B0494DA69A3
:10107C00184D42F48022DA61DA69284602F48022A3
:10108C000092009A9A6902A942F008029A619B693F
:10109C004FF4806203F008030193019B0223CDE916
:1010AC0002230323059300F0FDF84FF40063284658
:1010BC0002A9CDE90234049400F0F4F8224621464A
:1010CC00272000F09BF8272000F0CAF807B030BDAD
:1010DC0000100240000C0140FEE7FEE7FEE7FEE7D1
:1010EC00FEE770477047704700F064B8014800F0A5
:1010FC0097BB00BF0C1B002070470000FFF7FCFFE4
:10110C000B480C490C4A002302E0D458C450043359
:10111C00C4188C42F9D3094A094C002301E013602E
:10112C000432A242FBD303F02DF9FFF711FF7047F5
:10113C00000000207C010020004500087C010020FC
:10114C0050200020FEE7000038B50E4B05461878FD
:10115C004FF47A73B3FBF0F30B4A1068B0FBF3F067
:10116C0000F08CF8044658B90F2D09D802462946D0
:10117C004FF0FF3000F042F82046044B1D6038BDA4
:10118C000120FCE7040000200000002008000020E3
:10119C00074A08B51368032043F01003136000F0EE
:1011AC001BF80F20FFF7D0FFFFF744FF002008BD0E
:1011BC0000200240034A044B11681B780B44136057
:1011CC00704700BF400A002004000020014B186843
:1011DC00704700BF400A002007490302CA6803F4A5
:1011EC00E06322F4E0621204120C134343F0BF6379
:1011FC0043F40033CB60704700ED00E0164B30B584
:10120C00DC68C4F30224C4F10703251D042B28BF9A
:10121C000423062D4FF0FF3598BF002405FA03F385
:10122C0088BF033C21EA0303A34005FA04F422EA35
:10123C000402002843EA0203ACBF00F16040074AF5
:10124C004FEA0313DBB2ABBF00F5614000F00F00B7
:10125C0080F80033135430BD00ED00E014ED00E0D5
:10126C00002808DB0123420900F01F0003FA00F0FC
:10127C00014B43F82200704700E100E00138B0F167
:10128C00807F0BD24FF0E023F021054A586182F8A1
:10129C0023100020072298611A61704701207047C3
:1012AC0000ED00E02DE9F74F00221646644F654B28
:1012BC00DFF894C1DFF894E10D6835FA06F402D139
:1012CC0003B0BDE8F08F4FF0010808FA06F805EA04
:1012DC00080438EA05057BD14D68032D07D8013D7C
:1012EC00022D00F28880DFE805F0969BA100122DFC
:1012FC0000F099806ED8112D00F08F80FF2C98BFD4
:10130C0082464FF00F0988BF00F1040A4FEA8605A8
:10131C00DAF8008088BF203D09FA05FB28EA0B08A3
:10132C0002FA05F548EA0505CAF80050D1F804A000
:10133C001AF0805F4CD0BD6926F0030845F001051A
:10134C00BD61BD6908F1804805F00105019508F5FE
:10135C00803806F0030B019D4FEA8B0BD8F8085030
:10136C0009FA0BF925EA0909394DA84262D005F5AD
:10137C008065A84260D005F58065A8425ED005F571
:10138C008065A8420CBF0325042505FA0BF545EA38
:10139C000905C8F808509D681AF4801F14BF25432E
:1013AC00A5439D60DD681AF4001F14BF2543A543B7
:1013BC00DD605D681AF4003F14BF2543A5435D60F2
:1013CC001D681AF4803F14BF2C4325EA04041C60EA
:1013DC00013671E7DFF87C904D450CD017D8A9F594
:1013EC0080194D4507D009F570294D4503D0A9F555
:1013FC0080194D4582D18A68D2B1012A08BFC0F844
:10140C0010804FF0080218BFC0F8148076E76545CD
:10141C00F1D07545EEE7CA6870E7CA6804326DE72B
:10142C00CA6808326AE7CA680C3267E7002265E7C7
:10143C00042263E70025A8E70125A6E70225A4E717
:10144C000010024000040140000031100000321076
:10145C000008014000002210704770477047704729
:10146C00704770477047704770477047704700006F
:10147C00F0B5044687B000284BD090F8A93203F0A1
:10148C00FF0263BB4B4B80F8A822C0F8F0324A4BEA
:10149C00C0F8F432494BC0F8F832494BC0F8FC3272
:1014AC00484BC0F80033484BC0F80433474BC0F8E6
:1014BC000833474BC0F80C33464BC0F81033464B3F
:1014CC00C0F81433454BC0F81833D0F81C3313B99B
:1014DC00434BC0F81C332046D4F81C3398470323E5
:1014EC0025466E4684F8A93255F8100B01F078FAAF
:1014FC000FCD0FC62B68271D3360264697E80E00CC
:10150C0056F8100B01F05CFA054620B1022384F862
:10151C00A93201254BE00146206801F06BFA2946FF
:10152C004FF0010E28250A46D4F804C0C8B28445F1
:10153C0001F101011BD8002328251946D8B2844596
:10154C0003F101031FD8EC4635460FCDACE80F0074
:10155C002B68CCF8003097E80E00206801F04CFAAC
:10156C0001230546E0B1022284F8A922D1E705FB4C
:10157C000043C3E90E2283F829E083F8280083F89E
:10158C002B201A64D2E705FB0042C2E95E1182F8F7
:10159C00691182F8680182F86B11C2F88011CDE7ED
:1015AC0084F82400206884F8A93201F0DDFC284678
:1015BC0007B0F0BD79140008771400086F14000808
:1015CC00711400086D1400087314000875140008D9
:1015DC0065140008691400086B14000867140008EF
:1015EC006D410008034630B53AB9D0F8AC2242F050
:1015FC001002C0F8AC22012030BD90F8A8020128DE
:10160C0046D0012493F8A95283F8A842A542E8B227
:10161C002FD10139082925D8DFE801F0050C0F126C
:10162C0015181B1E2100C3F8F0220020002283F89D
:10163C00A822E1E7C3F8F422F7E7C3F8F822F4E7AD
:10164C00C3F8FC22F1E7C3F80023EEE7C3F8042348
:10165C00EBE7C3F80823E8E7C3F81C23E5E7C3F876
:10166C002023E2E7D3F8AC2242F01002C3F8AC22FC
:10167C00DCE793F8A90218B90829EDD00929EED0B6
:10168C00D3F8AC22204642F01002C3F8AC22CDE7CE
:10169C000220B1E7034639B9D0F8AC2242F010026F
:1016AC00C0F8AC220120704790F8A822012A15D06E
:1016BC00012093F8A92283F8A802824217BFD3F81D
:1016CC00AC22002042F01002C3F8AC224FF0000212
:1016DC0008BFC3F80C1383F8A82270470220704788
:1016EC00034639B9D0F8AC2242F01002C0F8AC2253
:1016FC000120704790F8A822012A15D0012093F8F8
:10170C00A92283F8A802824217BFD3F8AC2200208A
:10171C0042F01002C3F8AC224FF0000208BFC3F82D
:10172C00101383F8A822704702207047034639B97A
:10173C00D0F8AC2242F01002C0F8AC220120704765
:10174C0090F8A822012A15D0012093F8A92283F839
:10175C00A802824217BFD3F8AC22002042F010023C
:10176C00C3F8AC224FF0000208BFC3F8141383F87F
:10177C00A822704702207047034639B9D0F8AC2232
:10178C0042F01002C0F8AC220120704790F8A82259
:10179C00012A15D0012093F8A92283F8A8028242CD
:1017AC0017BFD3F8AC22002042F01002C3F8AC22D1
:1017BC004FF0000208BFC3F8181383F8A822704733
:1017CC000220704738B590F8A8320446012B10D08F
:1017DC00012580F8A852006801F0F9F82946204646
:1017EC0000F014FE206801F0BDFB002084F8A80274
:1017FC0038BD0220FCE710B590F8A8220446012A57
:10180C000BD0012280F8241080F8A822006801F087
:10181C00A3FB002084F8A80210BD0220FCE7000006
:10182C002DE9F04F044685B0006801F09FFB10F4E1
:10183C00004500F03084DFF8E892DFF8E882206899
:10184C00B0F844301F0402D405B0BDE8F08FB0F8F6
:10185C004460B1B216F00F0640F0C98011F01001CF
:10186C002CD103889BB203EA090343F400430380A1
:10187C00B0F8503094F828209BB203EBC20300EB75
:10188C004300B0F80434E26BC3F3090363641344FC
:10189C00E3632046D4F81033984794F82430002B97
:1018AC00CDD0226C002ACAD194F82430216843F0A0
:1018BC008003A1F84C3084F82420C0E70588ABB233
:1018CC0015F4006522D0B0F8503094F868219BB222
:1018DC0003EBC20300EB4303B3F80C34B4F86E21F2
:1018EC00C3F30903C4F8843104F52C7101F08CFDA9
:1018FC0022682046138823F070031B051B0D43F050
:10190C0080031380D4F8F432984798E7190496D5DD
:10191C00038823F070031B051B0D43F08003038029
:10192C00B0F8503094F868219BB203EBC20300EB83
:10193C004303B3F80C34C3F30903C4F8843193B1F3
:10194C00D4F87C1179B1B4F86E2101F05DFDD4F8B6
:10195C007C31D4F8842129461344C4F87C312046C8
:10196C00D4F80C33984721680A8893B212053FF5D6
:10197C0066AF03F44053B3F5405F3FF460AFB1F88A
:10198C00503001F20C409BB2C25AD4F87851C2F3D9
:10199C0009023E2DC2520CD9C25A6E09EF0608BF7D
:1019AC0006F1FF3692B242EA862242EA080292B26D
:1019BC0004E09DB9C25A92B242F40042C2520B8862
:1019CC0023F4804323F070031B041B0C83F440535B
:1019DC0043F4004343F080030B8030E7C25A6E0897
:1019EC00ED0748BF013692B242EA8622DFE730F8B3
:1019FC0026301A049FB240F1F480282130F82630AA
:101A0C0001FB064123F070031B051B0D43F0800303
:101A1C0020F8263091F8743100F5806CB3B9B0F829
:101A2C00503091F868219BB2063303EBC2033CF8AB
:101A3C001350C5F30905002D00F0B6802B46B1F804
:101A4C006E21D1F87C1101F0DFFCADE091F86B2137
:101A5C0091F86831022A40F08580B0F8505017F4A4
:101A6C00804AD1F880214FEAC30BADB207F0400E8B
:101A7C003BD0AB440BF1020B3CF81B50C5F30905F2
:101A8C00954213D90022C1F8802130F8232022F48A
:101A9C00804222F070021204120C82F4005242F4C2
:101AAC00004242F0800220F8232004E0521BC1F8CF
:101ABC008021002AE9D0BEF1000F0DD030F8232090
:101ACC0022F4E04222F070021204120C42F40042A2
:101ADC0042F0C00220F82320002D65D0282101FB04
:101AEC0006412B46B1F87021ABE75D4406353CF856
:101AFC001550C5F30905954216D9C1F880A130F8E7
:101B0C00232022F4804222F070021204120C82F480
:101B1C00005242F4004242F0800220F8232008E0F8
:101B2C000F8FFFFF0080FFFF521BC1F88021002A9E
:101B3C00E5D0BEF1000F0DD130F8232022F4E042A5
:101B4C0022F070021204120C42F4004242F0C00265
:101B5C0020F8232045B3282101FB06412B46B1F880
:101B6C0072216EE730F8232022F4E04222F070025A
:101B7C001204120C42F4004242F0C00220F823205E
:101B8C0091F8683130F8232012F4804F4FEAC302E9
:101B9C00B0F850309BB257D0023313443CF813507A
:101BAC00C5F30905002D9CD1282171436318D3F886
:101BBC0084212A44C3F88421D3F87C212A44C3F815
:101BCC007C21D3F880211AB1D3F878319D4244D2CC
:101BDC00282303FB06432046D4F80C2393F8681102
:101BEC0090473B067FF52BAE4FF0280C20680CFB82
:101BFC00064530F826309BB203EA090343F4004350
:101C0C0020F8263095F82B30012B51D1002195F876
:101C1C003430296493B317F0400795F8292095F8D0
:101C2C00283032D002BBB0F850201B0192B200F227
:101C3C00044010441A5AC2F309021A521A5A92B2A8
:101C4C0042F400421A5219E0063313443CF8135084
:101C5C00C5F30905002DA7D080E701F5B471206804
:101C6C00214401F099F9BCE7012A07D1B0F85020C2
:101C7C0000F2044092B21B0110441952D4F81033F4
:101C8C0095F8281020469847D9E532B9B0F850207D
:101C9C001B0192B200F20C40CBE7012AEED1B0F856
:101CAC00502000F20C4092B21B0110441F52E5E789
:101CBC0095F8281017F480722B6C4FEAC10A00F5C6
:101CCC00806E1ED1B0F85070BFB2BA440AF1020A4D
:101CDC003EF81A70C7F309079F4203D3D4F81033A8
:101CEC002A64CFE7DB1B2B64EB6B06FB0CCC3B4471
:101CFC00EB636B6C04EB0C013B446B6401F04CF933
:101D0C009DE5B0F8502017F0400C92B2524407F405
:101D1C00804700F0DD8002323EF812204FF0280C94
:101D2C00C2F309029A4228BF00230CFB064C38BFB1
:101D3C009B1ACCF84030BFB2002B4ED195F829201D
:101D4C00002A37D1B0F850600B01B2B200F2044651
:101D5C001644F25AC2F30902F252F25A92B242F407
:101D6C000042F252B0F8502000F20C4092B21044F3
:101D7C00C25AC2F30902C252C25A92B242F400428F
:101D8C00C2522046D4F810339847002F00F0DD8063
:101D9C0095F82810226832F8213023F4E04323F020
:101DAC0070031B041B0C43F4404343F0800322F8E4
:101DBC002130CAE0012AE4D1B0F850600A011FFAC0
:101DCC0086FC00F204466644B352B0F8506000F250
:101DDC000C40B6B230448352D3E76FB130F82130A7
:101DEC0023F4E04323F070031B041B0C43F4404327
:101DFC0043F0800320F82130282707FB064797F88B
:101E0C004C30012B40F0A180FB6BD7F848E003EB82
:101E1C00020C7B6CC7F83CC013447B64BB6B9E45C7
:101E2C002CD3AEEB0302BA6495F829201FFA83FE7B
:101E3C00002A41D1B0F8502000F2044792B23A4443
:101E4C000901575A3E2BC7F30907575223D9DF060E
:101E5C00575A4FEA531A08BF0AF1FF3ABFB247EA82
:101E6C008A2747EA0807BFB257522821734601FB5D
:101E7C0006466146328E01F07FF866E0BEF1000F37
:101E8C0003D1134687F84CE0CEE7002387F84C309B
:101E9C00BB647346C8E72BB9535A9BB243F4004357
:101EAC005352E2E75F08DB07535A48BF01379BB236
:101EBC0043EA87239BB2F3E7012AD6D1B0F850301E
:101ECC0009019AB200F20443134423F801E0CCE771
:101EDC0006323EF81220BFB2C2F309029A4288BF02
:101EEC0063464FF0280C0CFB064C98BF9B1ACCF8A1
:101EFC004030002B4FD195F82920002A38D1B0F86A
:101F0C0050600B01B2B200F204461644F25AC2F30E
:101F1C000902F252F25A92B242F40042F252B0F872
:101F2C00502000F20C4092B21044C25AC2F3090283
:101F3C00C252C25A92B242F40042C2522046D4F863
:101F4C0010339847002F3FF423AF95F828102268E0
:101F5C0032F821309BB223F4E04323F0400383F0AA
:101F6C00300343F4004343F0800322F8213066E44D
:101F7C00012AE3D1B0F850600A011FFA86FC00F286
:101F8C0004466644B352B0F8506000F20C40B6B24E
:101F9C0030448352D2E76FB930F8213023F4E04358
:101FAC0023F070031B041B0C43F4404343F08003E9
:101FBC0020F821304FF0280C0CFB064C9CF84C30D0
:101FCC00012BC2D1DCF84430DCF83C701344DCF853
:101FDC0048E0CCF84430DCF8383017449E45CCF857
:101FEC003C7026D3AEEB0302CCF8482095F82920A0
:101FFC001FFA83FC002A42D1B0F8502000F20C4E9C
:10200C0092B27244090132F801E03E2BCEF3090E74
:10201C0022F801E01BD94FEA531EDB06535A08BFC6
:10202C000EF1FF3E9BB243EA8E2343EA08039BB2B8
:10203C0012E0BEF1000F03D113468CF84CE0D5E74B
:10204C000023CCF848308CF84C307346CEE75BB9A3
:10205C00535A9BB243F400435352282101FB0646CA
:10206C0063463946728E06E74FEA530EDB07535A26
:10207C0048BF0EF1010E9BB243EA8E23D7E7012A2B
:10208C00EBD1B0F850309AB200F20C4313440A0171
:10209C0023F802C0E1E7460513D522682046B2F8C2
:1020AC00443023F480631B041B0CA2F84430D4F896
:1020BC00F83298472946204605B0BDE8F04FFFF7A7
:1020CC009ABB41040AD52268B2F8443023F4804309
:1020DC001B041B0CA2F84430FFF7B6BB820405D5D9
:1020EC002268B2F8443023F40053F1E7C3041AD544
:1020FC0022682046B2F8403023F004031B041B0C6A
:10210C00A2F84030B2F8403023F008031B041B0C3B
:10211C00A2F84030D4F8003398472268B2F8443023
:10212C0023F48053D4E707054AD56846226806464F
:10213C001146134602F1200533F8047B9D4226F824
:10214C00027BF9D1B2F840309BB243F00103A2F804
:10215C004030B2F8403023F001031B041B0CA2F8F2
:10216C004030B2F844305E05FBD5B2F8443023F46D
:10217C0080631B041B0CA2F8443030F8023B21F89E
:10218C00043B8D42F9D1B2F840309BB243F00803C6
:10219C00A2F84030B2F8443023F400631B041B0C4B
:1021AC00A2F84430B2F840309BB243F00403A2F8DA
:1021BC004030D4F8FC32204605B0BDE8F04F18474B
:1021CC0082050BD52268B2F8443023F400731B044B
:1021DC001B0CA2F84430D4F8F032ECE7C3057FF5C1
:1021EC0033AB2268B2F8443023F4807370E700BF3D
:1021FC0011F0800F70B505464FF0280401F0070070
:10220C001AD0012600FB044129444E70022BCB70DE
:10221C0008BF0023087008BF0B710A6195F8A8323B
:10222C00012B12D00123286885F8A83200F0F8FBA6
:10223C00002085F8A80270BD0026444304F5B47153
:10224C002C44294484F86961E0E70220F3E711F09B
:10225C00800F10B54FF02803044601F0070213D08D
:10226C0002FB03310144012048700A7094F8A83233
:10227C00012B12D00123206884F8A83200F032FD23
:10228C00002084F8A80210BD534303F5B471014437
:10229C000344002083F86901E7E70220F3E770B5F7
:1022AC0001F00705282100266943441801F5B47193
:1022BC000144C4E95F23C4F8846184F8696184F83B
:1022CC006851006800F068FE304670BD282301F0AC
:1022DC00070103FB0100D0F88401704770B501F0D1
:1022EC000705282101FB05040026C4E90F23012260
:1022FC0005FB011184F84C200144A364666484F846
:10230C00292084F82850006800F046FE304670BD45
:10231C0038B5436801F007059D42044628D811F0F2
:10232C00800F4FF028031AD0012205FB0331014422
:10233C004A7001230D708B7094F8A8229A4219D020
:10234C00206884F8A83200F09EFD25B9206804F5B9
:10235C002C7100F00FFE002084F8A80238BD00227A
:10236C004B4303F5B4710344014483F86921E0E75E
:10237C000120F3E70220F1E738B5436801F00F02C2
:10238C009A42044625D811F0800F4FF0280301F033
:10239C00070215D002FB03310144012048700025CF
:1023AC000A708D7094F8A832012B14D00123206888
:1023BC0084F8A83200F087FD284684F8A85238BD6E
:1023CC00534303F5B47101440344002083F86901BD
:1023DC00E5E70120F3E70220F1E710B5282411F01E
:1023EC00800F1BBF01F0070101FB044104FB01003E
:1023FC00401808BF00F5B47099B21AB90273C180C5
:10240C00002010BD012283600273F9E770470000C1
:10241C002DE9F341054638B30368DB0710D42B686C
:10242C009F075ED42B68190700F195802B685A071B
:10243C0000F1C180E869002840F02C81002029E0DF
:10244C00904C636803F00C03042B07D0636803F013
:10245C000C03082B0AD16368DE0307D523689C03A1
:10246C00DDD56B68002BDAD1012013E06B68B3F576
:10247C00803F12D1236843F480332360FEF7A6FE1D
:10248C00064623689803CAD4FEF7A0FE801B642876
:10249C00F7D9032002B0BDE8F0819BB9236823F47F
:1024AC0080332360236823F480232360FEF78EFEA1
:1024BC00064623689903B2D5FEF788FE801B642874
:1024CC00F7D9E6E7B3F5A02F236803D143F48023B3
:1024DC002360CFE723F480332360236823F4802325
:1024EC00CBE7684C636813F00C0F07D0636803F0FC
:1024FC000C03082B10D16368DA030DD423689B07F7
:10250C0002D52B69012BAFD123686A6923F0F8033C
:10251C0043EAC203236085E72A695B4B6AB1012257
:10252C001A60FEF753FE064623689F07ECD4FEF7AD
:10253C004DFE801B0228F7D9ABE71A60FEF746FE6A
:10254C000646236898077FF56DAFFEF73FFE801BAC
:10255C000228F6D99DE7AA694A4E4B4BE2B10122FB
:10256C00C3F88024FEF732FE0446736A9B070DD530
:10257C004FF4FA52454B1B68B3FBF2F3019300BFC7
:10258C00019B5A1E0192002BF9D14FE7FEF71EFE5C
:10259C00001B0228E9D97CE7C3F88024FEF716FE5D
:1025AC000446736A9F077FF541AFFEF70FFE001BD1
:1025BC000228F6D96DE7334CE369D80024D40127FF
:1025CC00E36943F08053E361E36903F080530093C4
:1025DC00009B2F4E3368D90518D5EB68012B26D1FB
:1025EC00236A43F001032362FEF7F0FD41F28838C1
:1025FC000646236A9B073FD5002F3FF41BAFE369C8
:10260C0023F08053E36115E70027E2E7336843F4D6
:10261C0080733360FEF7DAFD80463368DA05DCD46C
:10262C00FEF7D4FDA0EB08006428F6D931E7ABB96E
:10263C00236A41F2883823F001032362236A23F0D2
:10264C0004032362FEF7C2FD0646236A9807D3D51E
:10265C00FEF7BCFD801B4045F7D91AE7052B236A12
:10266C0003D143F004032362BAE723F0010323628E
:10267C00236A23F00403B6E7FEF7A8FD801B404550
:10268C00B7D906E7001002400000424200000020CB
:10269C00007000402A4C636803F00C03082B3ED0FA
:1026AC000022284B02281A662CD1FEF78FFD064615
:1026BC002368990120D42B6AB3F5803F05D1626859
:1026CC00A96822F400320A436260696A62680B43AB
:1026DC0022F474121343012263601A4B1A66FEF73C
:1026EC0075FD054623689A013FF5A8AEFEF76EFD11
:1026FC00401B0228F6D9CCE6FEF768FD801B0228A9
:10270C00D6D9C6E6FEF762FD054623689B017FF528
:10271C0095AEFEF75BFD401B0228F6D9B9E6012801
:10272C003FF4B8AE63682A6A03F4803191427FF4B7
:10273C009BAE6A6A03F4701393423FF47FAE93E648
:10274C0000100240000042420D4A536803F00C0195
:10275C00082912D10B48C3F38341DB03405C09D534
:10276C005368094AC3F340435043084AD35CB0FB57
:10277C00F3F07047064B584370470348704700BF4F
:10278C00001002409844000800127A00A844000887
:10279C0000093D002DE9F0410D46044610B9012019
:1027AC00BDE8F081444A136803F007038B4228D339
:1027BC0021688E0730D4CA0743D43F4A136803F00C
:1027CC000703AB4265D822683C4D12F0040F6CD164
:1027DC00130706D56B68226923F4605343EAC203DE
:1027EC006B60FFF7B1FF6B68354AC3F30313D35C1F
:1027FC00D840344B1860344B1868FEF7A5FC002009
:10280C00CEE7136823F007030B431360136803F040
:10281C0007038B42C3D1CBE7284B11F0040F1EBF2B
:10282C005A6842F4E0625A60080742BF5A6842F4A0
:10283C0060525A605A68A06822F0F00202435A6053
:10284C00B9E762681D4E012A33681AD113F4003FB0
:10285C00A5D0736841F2883823F0030313437360E7
:10286C00FEF7B4FC07467368626803F00C03B3EB25
:10287C00820FA2D0FEF7AAFCC01B4045F3D903205F
:10288C008EE7022A02D113F0007FE1E713F0020F6A
:10289C00DEE7136823F007032B431360136803F080
:1028AC000703AB427FF47BAF8DE76B68E16823F4E1
:1028BC00E0630B436B608BE700200240001002408A
:1028CC0088440008000000200800002003682DE95F
:1028DC00F341D907054620D5364CE369DA0032D4EA
:1028EC000126E36943F08053E361E36903F080530D
:1028FC000193019B304F3B68DB0526D5236A13F40B
:10290C00407336D1236A6A6823F4407313432362FD
:10291C001EB1E36923F08053E3612868830706D571
:10292C002449AB684A6822F440421A434A6010F0CA
:10293C0010001BD01F4AE9685368002023F4800361
:10294C000B43536012E00026D4E73B6843F48073DA
:10295C003B60FEF73BFC80463B68D805CED4FEF7C7
:10296C0035FCA0EB08006428F6D9032002B0BDE8C2
:10297C00F0816A6802F440729A42C3D001200F4A77
:10298C00236AC2F84004002023F44071C2F84004CA
:10299C002162D907B6D5FEF719FC41F288380746F3
:1029AC00236A9A07AED4FEF711FCC01B4045F7D939
:1029BC00DBE700BF00100240007000400000424204
:1029CC0084B001A880E80E0004B0002070470346D4
:1029DC004FF43F420020A3F84400A3F84020704776
:1029EC00B0F8403023F47C535B045B0CA0F840300F
:1029FC00002070470020704784B010B5044603A82F
:102A0C0080E80E0000200123A4F84030A4F8400018
:102A1C00A4F84400A4F85000BDE8104004B070477E
:102A2C00F0B50A78CE7830F82240034624F4EC4412
:102A3C0024F070042404240C032E4CD8DFE806F098
:102A4C0002484644304644F4007448F280073C4344
:102A5C0023F8224033F82240DFF87CC2A4B204EA07
:102A6C000C0414433C4323F822400C7B03EB021E62
:102A7C00002C40F08B80CD884C786D086D0064B3D1
:102A8C00B3F85040A4B27444A4F8005433F82210A4
:102A9C004F060AD533F82250ADB205EA0C0545F4C1
:102AAC00004545F0C00523F8225033F822108B4C1A
:102ABC0089B2012E01EA040101D081F0200141F418
:102ACC00004141F08001BFE044F4C0640020BCE749
:102ADC0044F48064FAE70120B7E7B3F85040A4B29D
:102AEC007444A4F80854B3F85040A4B27444B4F835
:102AFC000C54C5F30905A4F80C540D693E2D2FD9BF
:102B0C00B4F80C146E09ED0608BF06F1FF3689B255
:102B1C0041EA86216FEA41416FEA514189B2A4F83A
:102B2C000C1433F822104F040DD533F8221021F475
:102B3C00E04121F070010904090C41F4404141F0DD
:102B4C00800123F82210664CCAB9198889B2214039
:102B5C0081F4405141F4004141F080011980F0BDF5
:102B6C0015B9B4F80C14D5E7E907B4F80C144FEA0E
:102B7C00550648BF013689B241EA8621CEE733F8C3
:102B8C00221089B2214081F4005198E7022E33F8CB
:102B9C0022505CD1ADB205EA0C0545F4014545F077
:102BAC00800523F82250B3F850400D89A4B26D086B
:102BBC0074446D00A4F800544D89B3F850406D086E
:102BCC00A4B274446D00A4F808544978002946D185
:102BDC0033F822104E040DD533F8221021F4E041C5
:102BEC0021F070010904090C41F4404141F08001CD
:102BFC0023F8221033F822104D060DD533F822108D
:102C0C0021F4E04121F070010904090C41F4004168
:102C1C0041F0C00123F8221048F2800433F822104E
:102C2C0021F4804121F070010904090C81F4405118
:102C3C00214323F8221033F8221021F4E04121F033
:102C4C0040010904090C214323F8221087E725F4DD
:102C5C00E24525F070052D042D0C3D43A1E733F81A
:102C6C0022104C040DD533F8221021F4E04121F050
:102C7C0070010904090C41F4404141F0800123F832
:102C8C00221033F8221049060DD533F8221021F406
:102C9C00E04121F070010904090C41F4004141F0BC
:102CAC00C00123F8221033F822100C4C89B22140B9
:102CBC00012E18BF81F0200141F4004141F0800148
:102CCC0023F8221033F8221021F4804121F07001F6
:102CDC000904090CF3E600BF8F8FFFFFBF8FFFFFC6
:102CEC008FBFFFFF4A780B78097BD9BB0AB330F84A
:102CFC00232051060DD530F8232022F4E04222F097
:102D0C0070021204120C42F4004242F0C00220F88D
:102D1C00232030F8232022F4E04222F04002120457
:102D2C00120C42F4004242F0800220F823200020D2
:102D3C00704730F8232052040DD530F8232022F4AC
:102D4C00E04222F070021204120C42F4404242F0B3
:102D5C00800220F8232030F8232022F4804222F035
:102D6C007002DCE7002A48D130F8232051040DD53D
:102D7C0030F8232022F4E04222F070021204120CEC
:102D8C0042F4404242F0800220F8232030F8232005
:102D9C0052060DD530F8232022F4E04222F07002C6
:102DAC001204120C42F4004242F0C00220F823201C
:102DBC0048F2800130F8232022F4E04222F0700225
:102DCC001204120C42F4004242F0C00220F82320FC
:102DDC0030F8232022F4804222F070021204120CEC
:102DEC000A4320F8232030F8232022F4E04222F07A
:102DFC0040021204120C0A4397E730F823205104C6
:102E0C000DD530F8232022F4E04222F07002120497
:102E1C00120C42F4404242F0800220F8232030F899
:102E2C00232052060DD530F8232022F4E04222F064
:102E3C0070021204120C42F4004242F0C00220F85C
:102E4C00232048F2800130F8232022F4E04222F0C3
:102E5C0070021204120C42F4404242F0800220F83C
:102E6C00232030F8232022F4E04222F04002120406
:102E7C00120C0A4320F8232030F8232022F480423D
:102E8C0022F07002B5E74B780A788BB130F822301B
:102E9C0023F4E04323F040031B041B0C83F01003CA
:102EAC0043F4004343F0800320F8223000207047A5
:102EBC0030F8223023F4804323F070031B041B0CE6
:102ECC0083F48053ECE70B7B3BBB4B780A7833B332
:102EDC0030F822305B060DD530F8223023F4E04375
:102EEC0023F070031B041B0C43F4004343F0C0039A
:102EFC0020F82230CB78012B0FD030F8223023F47D
:102F0C00E04323F040031B041B0C83F0200343F429
:102F1C00004343F0800320F822300020704730F843
:102F2C0022305B040DD530F8223023F4E04323F03B
:102F3C0070031B041B0C43F4404343F0800320F844
:102F4C00223030F8223023F4804323F070031B042A
:102F5C001B0C83F44053DAE711B98023A0F84C30F2
:102F6C00002070470020704700207047B0F84400E4
:102F7C0080B270470020704700EB4202013302F52B
:102F8C0080625B0802EB8303934200D1704731F8F7
:102F9C00020B22F8040BF7E72DE9F0410C464978B7
:102FAC0005460129227B40F01E81D4F810E0A66969
:102FBC006169764528BF76460ABBB6B2E2883346CD
:102FCC00FFF7DAFFB5F85020217890B205F20442F1
:102FDC00090102448E52227835F8223023F4E04362
:102FEC0023F040031B041B0C83F03003002043F43C
:102FFC00004343F0800325F82230BDE8F081E278ED
:10300C002778022A236A4FEA071C40F0D6809E4597
:10301C0030F8272080F0BA8022F4E04222F07002CF
:10302C001204120C42F4014242F0800220F82720D4
:10303C0030F82780B0F850209B1B18F04008236212
:10304C0097B2B3B252D000F20C423A4422F80C3090
:10305C006289FFF791FF276A236961699F428ABFE2
:10306C00BB1B002337466278314423626161BBB2DB
:10307C0082BBB5F85000267882B205F204403601C6
:10308C001044325A3E2FC2F30902325214D9FA06B6
:10309C00325A4FEA571C08BF0CF1FF3C92B242EA7D
:1030AC008C226FEA42426FEA524292B23252228929
:1030BC002846FFF761FF8EE70FB9325AF1E7325A13
:1030CC004FEA570CFF0748BF0CF1010C92B242EAD1
:1030DC008C22EAE7012AEAD1B5F85020207896B282
:1030EC0005F20442000132448352E0E700F204424C
:1030FC003A4422F80C302289FFF73EFF276A2369F5
:10310C0061699F428ABFBB1B434637466278314494
:10311C0023626161BBB26ABBB5F85000267882B2FB
:10312C0005F20C4036011044325A3E2FC2F309020C
:10313C00325211D9FA06325A4FEA571C08BF0CF119
:10314C00FF3C92B242EA8C226FEA42426FEA524250
:10315C0092B232526289ABE70FB9325AF4E7325A63
:10316C004FEA570CFF0748BF0CF1010C92B242EA30
:10317C008C22EDE7012AEDD1B5F85020207896B2DB
:10318C0005F20C42000132448352E3E722F4E2429E
:10319C0022F070021204120C42F4004242F080023F
:1031AC0020F82720B0F850209BB296B200F20442CF
:1031BC00324422F80C3022897BE730F827209B1B05
:1031CC0012F0400FB0F850202362B3B296B206D082
:1031DC0000F20C42324422F80C30628969E700F2AA
:1031EC0004423244E5E7002A31D1A06923692178F1
:1031FC00984284BFC21A1846A261B5F85020090142
:10320C0093B205F20C421A448B5A3E28C3F30903BD
:10321C008B520DD98B5A4609C00608BF06F1FF36F2
:10322C009BB243EA86236FEA43436FEA53430BE0B6
:10323C0008B9535AF7E7C3078B5A4FEA500648BFF1
:10324C0001369BB243EA86239BB253526AE0E37881
:10325C00022B7CD100294BD1B0F8501020788BB2C6
:10326C0005F2044100011944435AC3F309034352C4
:10327C0023693E2B20D9425A5E09DF0608BF06F1AE
:10328C00FF3692B242EA86226FEA42426FEA52421B
:10329C0092B24252B5F85010227805F20C4089B225
:1032AC0012010144505A3E2BC0F30900505210D861
:1032BC00002B43D1535A15E00BB9425AE4E7DA0715
:1032CC00425A4FEA530648BF013692B242EA86226E
:1032DC00DEE75809DF06535A08BF00F1FF309BB2F6
:1032EC0043EA80236FEA43436FEA53439BB2535242
:1032FC00E369BBB144F24003227835F8221003EAAB
:10330C0001008B4300D068B935F8223023F4E04338
:10331C0023F070031B041B0C43F4004343F0C00365
:10332C0025F82230227835F8223023F4804323F01C
:10333C0070031B041B0C83F4405357E65808DE073C
:10334C00535A48BF01309BB243EA8023CEE7012B8E
:10335C0058D1A3692269934294BF0020981AA061A6
:10336C0088BF13460029DDD1B5F8501020788AB2F9
:10337C0005F2044100011144425A3E2BC2F30902EA
:10338C00425229D9DA06425A4FEA531608BF06F1BF
:10339C00FF3692B242EA86226FEA42426FEA52420A
:1033AC0092B24252B5F85010227805F20C4089B214
:1033BC0012010144505A3E2BC0F30900505217D849
:1033CC00002B3FF436AF5808DB07535A48BF013087
:1033DC009BB243EA802337E70BB9425ADCE7425AE7
:1033EC005E08DF0748BF013692B242EA8622D7E771
:1033FC005809DE06535A08BF00F1FF309BB243EA6E
:10340C00802310E70120F8E500EB4202F0B502F54D
:10341C0080625D080C4617462E46023436B9DB072F
:10342C0044BF32F8253001F81530F0BD37F8040BE5
:10343C00013E80B204F8020C000A04F8010CECE71F
:10344C00D0F8BC3210B56BB1D0F8B84294F8000289
:10345C00FF2807D09B68214694F801229847FF2348
:10346C0084F80032002010BD4323038000487047CD
:10347C00440000204323038000487047880000204C
:10348C004323038000487047D80000200A230380A0
:10349C0000487047CC00002038B50446D0F8B8522C
:1034AC0000F065FFD4F8B832C5F80C024BB1D4F873
:1034BC00BC32D5F80402DB6805F50371984700208F
:1034CC0038BD0220FCE7F8B5D0F8B862D6B11422AA
:1034DC0002FB0102D4698CB12827D0F8C03207FB5B
:1034EC000135AB6BB4FBF3F503FB154434B9D46174
:1034FC002346224600F029FF2046F8BD0020C6F8DE
:10350C001402FAE70220F8E72DE9F7434FF0000820
:10351C000A78054612F060040E46D0F8B8728DF8A1
:10352C000580ADF8068028D0202C42D1CC884B7871
:10353C00E4B1120611D5D0F8BC223946D2F8089065
:10354C0018462246C84739462846F28800F05BFCEC
:10355C004446204603B0BDE8F0832246394687F83E
:10356C00003287F8014200F063FCF1E7D0F8BC228E
:10357C00184695682246A847EBE74B780A2B0CD0E7
:10358C000B2B12D0ABB990F89C32032B11D1022229
:10359C000DF1060100F037FCDBE790F89C32032BB1
:1035AC0007D101220DF10501F4E790F89C32032BB1
:1035BC00CFD03146284600F0FFFB0224C9E738B5CE
:1035CC0004460025812100F08AFE01212046E56297
:1035DC0000F085FE82212046C4F86C5100F07FFE7D
:1035EC00D4F8B83225644BB1D4F8BC325B68984738
:1035FC00D4F8B80200F0C4FEC4F8B852002038BDAC
:10360C002DE9F041037C0446BBBB4FF4007302224E
:10361C008121012500F057FE4FF40073E56201276C
:10362C0029460222204600F04EFE08230322822166
:10363C00C4F86C51204600F046FE4FF40770276426
:10364C0000F09AFE0546C4F8B80240B34FF00008EB
:10365C00D4F8BC321B689847C5F81482C5F8188298
:10366C00267C9EB94FF4007339462046D5F80422C7
:10367C0000F074FE3046BDE8F081012540230222A3
:10368C00812100F020FE4023E562C8E74023394643
:10369C002046D5F8042200F061FE4646EAE73E4695
:1036AC00E8E719B1C0F8BC1200207047022070473F
:1036BC00D0F8B8320020C3F80812C3F810227047B3
:1036CC00D0F8B8320020C3F804127047D0F8B822F2
:1036DC0010B582B1D2F81442012374B9C2F8143275
:1036EC00D2F8103281210363D2F808229BB200F089
:1036FC002CFE204610BD0220FCE71846FAE7D0F855
:10370C00B82210B582B1047CD2F8042234B94FF43B
:10371C000073012100F022FE204610BD4023012140
:10372C0000F01CFE0024F7E70224F5E708B580B191
:10373C00D0F8B43213B10023C0F8B43209B1C0F8D8
:10374C00B0120123027080F89C3200F029FD002099
:10375C0008BD0220FCE719B1C0F8B4120020704774
:10376C000220704708B500F0A5FD002008BD08B583
:10377C00D0F8B4320BB9022008BD1B68984700285A
:10378C00FAD0F8E708B5D0F8B4325B689847002057
:10379C0008BD38B500F52A750446284600F0F8FA3D
:1037AC00012394F8A812C4F89432B4F8AE32C4F8D9
:1037BC00983201F01F03012B08D0022B0BD07BB9E0
:1037CC002946204600F00CF9002038BD2946204639
:1037DC0000F030FAF8E72946204600F04FFAF3E7FC
:1037EC00204601F0800100F083FDEDE7F8B50446BA
:1037FC0017460D4639BBD0F89432032B1CD1D0E9B7
:10380C00586296420BD9B61AB2423946C0F860617A
:10381C008CBFB2B292B200F018FB2846F8BDD0F8BB
:10382C00B4321B6923B190F89C22032A00D198472B
:10383C00204600F012FBF0E7052BEED1C4F89412F1
:10384C0000F056FDE9E7D0F8B4329B6933B190F83B
:10385C009C22032A02D198470025DEE70225DCE7EB
:10386C00F8B5044617460D46002947D1D0F89432D6
:10387C00022B3CD1D0E908639E4214D9F31A394685
:10388C0003629AB200F0CCFA2B462A46294620460F
:10389C0000F064FD94F8A032012B02D1002384F8CF
:1038AC00A0322846F8BDC269B2FBF3F603FB16261C
:1038BC005EB9934209D8D0F898329A4205D20A469A
:1038CC0000F0AEFAC4F89852DEE7D4F8B432DB68F4
:1038DC002BB194F89C22032A01D1204698478021D1
:1038EC00204600F005FD204600F0C2FAD2E733F086
:1038FC000403CFD1802100F0FBFCCBE7D0F8B4322D
:10390C005B6933B190F89C22032A02D198470025B9
:10391C00C7E70225C5E7002270B5044601254026FD
:10392C001146402300F0CFFC334680210022204674
:10393C00C4F85851C4F8646100F0C5FC0021D4F8F7
:10394C00B832A561666284F89C52C4F89412616026
:10395C00C4F8A41223B1D4F8B43220465B6898475B
:10396C00002070BD01740020704790F89C3280F8E4
:10397C009D32042380F89C320020704790F89C32D2
:10398C00042B04BF90F89D3280F89C3200207047C5
:10399C0008B590F89C22032A04D1D0F8B432DB6924
:1039AC0003B19847002008BD0020704700207047E5
:1039BC0000207047012208B580F89C22D0F8B42270
:1039CC00017952689047002008BD10B5044680214B
:1039DC0000F08EFC2046BDE81040002100F088BCB1
:1039EC0037B50B78044603F06003202B0D4612D03C
:1039FC00402B10D0002B51D14B78092B4ED8DFE83F
:103A0C0013F0EE000A014D0003014D008700130076
:103A1C004D00D600A300D4F8B432294620469B684A
:103A2C009847002003B030BD0023ADF806304B881A
:103A3C001A0A013A062A31D8DFE802F004162330BC
:103A4C0030485200D0F8B0321B68207C0DF10601D2
:103A5C009847BDF80620002A56D0EB88002B4AD197
:103A6C00204600F0FAF9DCE7027CD0F8B43232B927
:103A7C009B6A0DF10600984702234370E9E7DB6A65
:103A8C00F7E7DBB2052B09D8DFE803F0030C1014C1
:103A9C00181CD0F8B0325B68002BD6D12046FFF74B
:103AAC0094FFBEE7D0F8B0329B68F5E7D0F8B0329F
:103ABC00DB68F1E7D0F8B0321B69EDE7D0F8B03233
:103ACC005B69E9E7D0F8B0329B69E5E7037C002B32
:103ADC00E4D1D0F8B4320DF106005B6B9847B8E72F
:103AEC00037C002BDAD1D0F8B4320DF106001B6B3D
:103AFC0098470723C1E79A4228BF1A460146204639
:103B0C00ADF8062000F07FF9EB88002B89D1A7E7F0
:103B1C008B88002BC2D1CB88002BBFD14D887F2D39
:103B2C00BCD890F89C32032BB8D0E9B280F89E1226
:103B3C0000F002FC204600F090F91DB1022384F83D
:103B4C009C326EE70123FAE78978394D01292970F7
:103B5C00A4D890F89C32022B08D0032B15D0FFF779
:103B6C0034FF20462978FFF70DFE5AE700293FF471
:103B7C0077AF01210323416080F89C322046FFF788
:103B8C00F6FD02287FF46CAF88E731B9022341605F
:103B9C0080F89C32FFF7F6FD62E7416801293FF49B
:103BAC005FAFC9B2FFF7EEFD29786160E6E7CA881E
:103BBC00012A7FF473AF90F89C32022B0AD8002BA9
:103BCC003FF46CAF0146002341F8083F204600F05B
:103BDC001AF926E7032B7FF461AF011DF6E790F885
:103BEC009C32013B022B3FF659AFCB88022B7FF462
:103BFC0055AF0123C360D0F8A4320BB10323C360CB
:103C0C00022204F10C01E1E74B88012B7FF409AF90
:103C1C00C4F8A43224E790F89C32013B022B3FF607
:103C2C003DAF4B88012B7FF4FCAE0023F0E700BFC7
:103C3C00440A002038B50B78044603F06002402A91
:103C4C000D4601D05B0615D494F89C32013B022B37
:103C5C0010D82B79012B0DD8D4F8B43229469B6897
:103C6C0020469847EB881BB910B9204600F0F5F8B0
:103C7C00002038BD2046FFF7A8FEF9E738B50A78D2
:103C8C00044602F06002202A0B4627D0402A25D099
:103C9C0092BB5A788D88012A09793DD0032A25D008
:103CAC0052BB90F89C32022B4DD0032B24D1142202
:103CBC0001F00F0315F0800F02FB030354D09B6936
:103CCC00D3B1142301F07F0505FB0333C51811F0A4
:103CDC007F0355D12B600222294641E0D4F8B4224F
:103CEC001946204692689047002038BD90F89C22D7
:103CFC00022A1FD0032A03D02046FFF766FEF3E703
:103D0C005A882AB94A0603D0DB880BB900F0F0FABE
:103D1C00204600F0A2F8E7E790F89C22022A09D08E
:103D2C00032AE9D15B88002BDED14D06F0D000F0E0
:103D3C00E8FAEDE74B06DFD000F0DAFA80212046F6
:103D4C0000F0D6FAD0E74A06D6D12B064FF0000386
:103D5C004FF002024CBF00F1140100F5AA710B6088
:103D6C00204600F050F8BFE7D3F85831002BC3D0F1
:103D7C00142301F07F0503FB050505F5AA75A6E7DD
:103D8C00204600F0C7FA08B10123A3E72860A2E798
:103D9C000B7803704B784370CA788B7803EB022353
:103DAC0043804A790B7903EB02238380CA798B79A0
:103DBC0003EB0223C380704710B50446802100F04A
:103DCC0097FA2046BDE81040002100F091BA30B5BA
:103DDC0088B10024013823460134055D002DFAD149
:103DEC00DBB201335B0013800B7003234B70022397
:103DFC0010F8014F04B930BD5A1CCC54D2B2023366
:103E0C00DBB28D54F4E71346022210B5C0E9073338
:103E1C00C0F894220A46002100F097FA002010BD49
:103E2C0008B513460A46002100F08FFA002008BDA1
:103E3C001346032210B5C0E95733C0F894220A4642
:103E4C00002100F08BFA002010BD08B513460A467D
:103E5C00002100F083FA002008BD08B50423C0F847
:103E6C00943200231A46194600F06FFA002008BD60
:103E7C0008B50523C0F8943200231A46194600F001
:103E8C006DFA002008BD000008B500220E490F484D
:103E9C00FFF74CFC08B1FDF7CBF80D490B48FFF7C9
:103EAC005AFC08B1FDF7C4F80A490848FFF7F9FBBA
:103EBC0008B1FDF7BDF80548FFF754FC18B1BDE893
:103ECC000840FDF7B5B808BD2C010020480A0020B9
:103EDC000C0000201C0100200020704770B50C461F
:103EEC0005460A4E01463046FFF7EAFB3046FFF71F
:103EFC0006FC074B29461846226800F067FA226830
:103F0C0001460448FCF765FD002070BD480A0020FE
:103F1C000C150020A4010020202810B50C461AD145
:103F2C000A68C2B18A79092A227914BF04210521B1
:103F3C00022A9CBF0A4B9B566279012A0DD0022A99
:103F4C0014BF072209220748DBB2FCF737FD2168B2
:103F5C000448FCF730FD002010BD0822F3E700BF39
:103F6C00AA440008A401002010B5064C00222046EB
:103F7C000549FFF79DFB20460449FFF7A1FB0020F4
:103F8C0010BD00BF480A00200C1100200C0D0020B1
:103F9C0010B5094C0A46D4F8B832D3F8143243B9E8
:103FAC0001462046FFF784FB2046BDE81040FFF792
:103FBC008DBB012010BD00BF480A00201223014810
:103FCC000B80704748010020042301480B80704788
:103FDC005C010020002370B51E464D1C040FB0F18F
:103FEC00204F34BF3034373401F8134005F81360D8
:103FFC000133DCB2A2424FEA0010EFD870BD0000D2
:10400C001A2310B50B800A4BD3F8E807D3F8F02726
:10401C0080180AD0D3F8EC4706490822FFF7DAFFDC
:10402C00042220461031FFF7D5FF034810BD00BF16
:10403C0000F0FF1F620100206001002010B5044C4D
:10404C000A4604482146FFF7C2FE204610BD00BFB9
:10405C000C190020AD44000810B5044C0A46044865
:10406C002146FFF7B4FE204610BD00BF0C190020FE
:10407C00C044000810B5044C0A4604482146FFF71A
:10408C00A6FE204610BD00BF0C190020D944000824
:10409C0010B5044C0A4604482146FFF798FE20460A
:1040AC0010BD00BF0C190020E444000803289ABF7F
:1040BC00014B185C02207047F2440008D0F8EC0267
:1040CC00FFF772BCD0F8EC02FFF770BC282303FB9F
:1040DC000103D0F8EC02DA6BFFF7C2BB282303FB19
:1040EC000103D0F8EC02D3F87C21FFF77FBBD0F8AA
:1040FC00EC02FFF75FBCD0F8EC02FFF759BCD0F82C
:10410C00EC02FFF73BBC836810B5022B044601D0D0
:10411C00FCF78EFFD4F8EC020121FFF723FCD4F856
:10412C00EC02BDE81040FFF7F6BB00F52C71D0F89F
:10413C00EC02FFF72EBBD0F8EC02FFF729BC000015
:10414C0010B50446D0F8EC02FFF70FFCA36923B1BD
:10415C00024A136943F00603136110BD00ED00E041
:10416C0007B50E4B02689A4215D103F5DA33DA69BA
:10417C00142042F40002DA610022DB69114603F4D8
:10418C0000030193019BFDF739F8142003B05DF88F
:10419C0004EBFDF765B803B05DF804FB005C004070
:1041AC00082310B5364A04463648C0E900230223DA
:1041BC0083600023C0F8EC42C4F8C002C0E90633A7
:1041CC000362FDF755F908B1FCF732FF01212E4AC5
:1041DC002C48FDF707FA02212C4A2A48FDF702FA6F
:1041EC0003212B4A2748FDF7FDF90421294A2548CC
:1041FC00FDF7F8F90521284A2248FDF7F3F90621C5
:10420C00264A2048FDF7EEF9254A07211D48FDF7FF
:10421C00E9F924491B48FDF73DFA23491948FDF7F4
:10422C005FFA22491748FDF781FA21491548FDF735
:10423C00A3FA002218231146D4F8C002FEF7CDF8D9
:10424C00582300228021D4F8C002FEF7C6F8C02300
:10425C0000228121D4F8C002FEF7BFF84FF4887316
:10426C0000220121D4F8C002FEF7B7F84FF4807396
:10427C0000228221D4F8C002FEF7AFF8002010BD56
:10428C00005C00400C1B0020434100083741000833
:10429C00134100084D4100080B4100080341000880
:1042AC00FB400008E9400008D9400008D140000854
:1042BC00C940000808B5D0F8C002FDF783FABDE884
:1042CC000840FFF7F3BE10B51446D0F8C0021A46EA
:1042DC002346FDF78DFFBDE81040FFF7E7BE08B59C
:1042EC00D0F8C002FDF7B3FFBDE80840FFF7DEBE13
:1042FC0008B5D0F8C002FEF70BF8BDE80840FFF790
:10430C00D5BE08B5D0F8C002FEF736F8BDE80840B7
:10431C00FFF7CCBE282211F0800FD0F8C0321BBFA3
:10432C0001F07F0101FB022102FB01315B1814BF7C
:10433C00987891F86A01704708B5D0F8C002FDF77B
:10434C005AFABDE80840FFF7B1BE08B5D0F8C00274
:10435C00FDF7C4FFBDE80840FFF7A8BE08B5D0F8CC
:10436C00C002FDF79CFFBDE80840FFF79FBED0F8E8
:10437C00C002FDF7ABBF000000487047301E0020A4
:10438C007047000070B500260C4D0D4C641BA4103A
:10439C00A64209D100F030F800260A4D0A4C641BE5
:1043AC00A410A64205D170BD55F8043B98470136C0
:1043BC00EEE755F8043B98470136F2E7F84400085D
:1043CC00F8440008F8440008FC4400080A449142F0
:1043DC0000F1FF3300D1704710B511F8014B914239
:1043EC0003F8014FF9D110BD03460244934200D1AA
:1043FC00704703F8011BF9E7F8B500BFF8BC08BC1F
:10440C009E467047F8B500BFF8BC08BC9E46704786
:10441C000200000004000000080000001000000072
:10442C00000000000200000001000000010000007C
:10443C000038014000440040004800401D0C0008BA
:10444C001D0D0008FB0A00087D0B0008A50B0008D9
:10445C00A90B0008B70B0008B90B0008110E0008D7
:10446C00C10B0008CF0B0008DF0B0008E90B00089C
:10447C00F50B0008150E0008150D000800000000D3
:10448C0000000000010203040607080902030405EA
:10449C00060708090A0B0C0D0E0F101001020C0C6C
:1044AC000E53544D6963726F656C656374726F6EF5
:1044BC006963730053544D333220476967617369E4
:1044CC0074726F6E20436F6D506F7274004344436F
:1044DC0020436F6E6669670043444320496E7465E0
:0C44EC00726661636500000201020000BE
:0444F8003101000886
:0444FC000D010008A6
:104500000024F40001000000100000000D36000837
:10451000CB35000815350008000000004D340008B8
:10452000D3340008A534000800000000000000009B
:104530000000000081340008753400088D34000844
:104540009934000809024300020100C03209040046
:1045500000010202010005240010010524010001F0
:104560000424020205240600010705820308001046
:1045700009040100020A00000007050102400000D2
:10458000070581024000000009024300020100C04B
:104590003209040000010202010005240010010597
:1045A00024010001042402020524060001070582FB
:1045B0000308001009040100020A000000070501B9
:1045C0000200020007058102000200000A06000244
:1045D000000000400100000009074300020104C080
:1045E0003209040000010202010005240010010547
:1045F00024010001042402020524060001070582AB
:104600000308001009040100020A00000007050168
:10461000024000000705810240000000753F0008CD
:10462000E53E0008253F0008E93E0008C93F0008B4
:10463000D53F000849400008654000080D400008CB
:10464000814000089D400008120100020202004063
:10465000830440570002010203010000040309041F
:104660001A0300000000000000000000000000002D
:0C4670000000000000000000000000003E
:0400000508001109D5
:00000001FF
